:04000000803118280B
:100008007E1480310B1F09280A2816284E019B1ED2
:100018000E280F281628911E12281328162880311A
:10002800CC2080317E10090080311A288C30840061
:10003800213085006430FE000030FF008031A920A7
:100048008031F601F7017E10400180312B28803184
:100058009C2080318B170B17003077023230031940
:10006800760203183828392830288031C720803193
:10007800F000F1017708F3007608F200F235F30D8D
:100088008C30F4002130F50072087407860073087C
:10009800753D87007008C03F7108C13F0130F60701
:1000A8000030F73D30288031182840019801990127
:1000B8009A013F309200F0309300BF3094002F3007
:1000C8007E01CE007030C3003730B800C401B901DA
:1000D800CF01BA01C501D0013F30BB00C6013F3096
:1000E800D1003F30BC00C7013F30D2000F307D0146
:1000F800BB001430BD001730BC0002307E01A600E2
:10010800080006307C019B009C0104309D001A30D9
:100118009E0001309F000230A000A101A2018030A2
:10012800A30081309A009A164E0191129B1608007E
:100138008031BF2080318031592080318031B52015
:1001480080318031852080310800640080010131D0
:100158000130FE020030FF3B7F087E04031DAA2801
:100168000034603051018D008F01910106309300F9
:100178009001920108004F01960197019801990199
:100188009A019B0108007C011A0E890C01390800AC
:060198004E019112080067
:020000040001F9
:08000000FF3FFF3FFF3FFF3F00
:0A000E00EC3FFF3F9F3FFF3FFF3F25
:00000001FF
