:0400000080313728EC
:100008007E1480314E01961E0A280B2813288C1E58
:100018000E280F28132882314A22803135280B1FD9
:10002800162817283528191E1A281B2826280F1EB7
:100038001E281F28262840014C088A004B080A0061
:1000480080313528991E29282A2835288F1E2D28E1
:100058002E28352840014A088A0049080A008031BC
:1000680035287E100900803139287030840000302E
:100078008500083082312022803120308400003011
:10008800850023308231202280317E104001813169
:10009800C5294E018F1E512852284D2842011908A2
:1000A800F8007808F7000630760203185C285D2807
:1000B80069287708F8007608383E860087017808AE
:1000C80081000130F8007808F6073330400138061F
:1000D800031D6F2870288F2844303A06031D7528A1
:1000E80076287F2845303B06031D7B287C287F28FF
:1000F800F501F50A8F2845303A06031D842885281E
:100108008F2839303B06031D8A288B288F28023018
:10011800F8007808F5007503031D9328942895289E
:10012800161402307506031D9A289B289C28161061
:1001380008004E019912E2304001D0000030D10091
:100148008231322280314E01191272304001D000C2
:100158000130D10082312C228031083042019F00C9
:1001680090309D0024309E0040309B0003309C005E
:100178007A304001D0000230D10082313E228031F5
:100188006E304001D0000230D100823138228031F7
:1001980072304001D0000230D100823144228031D7
:1001A8004001BE01F401F3010830D2005208CF002B
:1001B800F201F101F0014E01991608007208203E83
:1001C80086008701810142011D1DEB28EC28F728D4
:1001D8007208203E860087018114400148088A0081
:1001E80047080A00803142019D1CFB28FC2807298A
:1001F8007208203E860087010115400146088A00E2
:1002080045080A0081317208203E860087010108EE
:1002180003190F2910291729400144088A004308A7
:100228000A0081311A298131942180310800400166
:100238003F0803192029212924290130BF02472911
:100248000A30F8007808BF00F5010A303D06031DA2
:100258002E292F294729F901FA017908383E860005
:10026800870181010130F9070030FA3D7A08803AA8
:10027800F80080307802031D432906307902031CF8
:10028800462947293129080040019601970198011C
:10029800FE309100FF309200FF309300BF307E01A6
:1002A800CE00FB30C300FE30B800E5010430C400C6
:1002B800B901CF01BA01C501D001FF30BB00FF3041
:1002C800C600FF30D100FF30BC00FF30C700FF3050
:1002D800D200E8010A307D01CB0008000830400157
:1002E8004F0203187829792991297308303E86002E
:1002F8008701010842019A000130F8007808F307E5
:1003080008307302031C89298A298B29F3010130DB
:10031800F80078084001CF0793294E011912080008
:1003280042011908F8007208283E860087017808FB
:1003380081000130F8007808F20708307202031CC7
:10034800A629A729A829F2010130F8007808F007A2
:100358000800333433344434453433344234443479
:100368004534333433344534393433344234453402
:1003780039343334333443344634333442344334F5
:1003880046348131F22181314D304001D0000030B6
:10039800D1008231322281311B304001D00001303E
:1003A800D1008231262281318B170B17DA2980314F
:1003B8003728803040019F009A309D009C014E01F3
:1003C8008C12961679304001D0000230D10082316B
:1003D80026228131813040019E0008008231182296
:1003E800813181314821813182310F22813181313E
:1003F800DD21813180319D208131080040014D0887
:100408004E040319082A092A0E2A4E088A004D08A4
:100418000A0082310800603051018D008F0191017E
:1004280006309300920108004F0196019701980148
:1004380099019A019B010800640080010131890B30
:10044800212A003440015108CE005008CD00080090
:1004580040015108CC005008CB0008004001510869
:10046800CA005008C900080040015108C6005008D9
:10047800C500080040015108C8005008C70008001E
:1004880040015108C4005008C30008004E018C12F6
:100498008231022282310800333433344334463403
:1004A8000034333442344334463400343334333440
:1004B8004534393400343334423445343934003423
:1004C80033343334443445340034333442344434DC
:1004D8004534003442011D121D1608008131942153
:0E04E80082310800333442340034080008002A
:020000040001F9
:08000000FF3FFF3FFF3FFF3F00
:0A000E00EC3FFF3F9F3FFF3FFF3F25
:00000001FF
