:0400000080312528FE
:100008007E1480314E01161E0A280B2813280C1E58
:100018000E280F2813288631FC26803123280B1F31
:100028001628172823281A1C1A281B282328101CCE
:100038001E281F2823288531AF25803123287E10CC
:10004800090080312728FA01FB01A0308400003024
:100058008500333087311427803120308400013007
:10006800850020308731142780317E10400185318A
:10007800172D4001C5003A08CE003B08CF003C08C8
:10008800D0003D08D1003E08D2003F08D300400808
:10009800D4004108D5004E30860000308700473F25
:1000A800C200C21B58285A2801305B280030400182
:1000B800C300C4014308CC004408CD004C084D04DB
:1000C8000319672868288628CE09CF09D009D109DD
:1000D800D209D309D409D509CE0A031D8628CF0A27
:1000E800031D8628D00A031D8628D10A031D8628E9
:1000F800D20A031D8628D30A031D8628D40A031DA5
:100108008628D50A4101A51B8A288B288F28FD300F
:10011800FA05FF30FB052508803A4001C20080300F
:100128004202031D9A2801304101240203189D2828
:100138009E28A42801304001C8000030C900AC281E
:10014800410125084001C900410124084001C800B7
:10015800410123084001CB00410122084001CA00A7
:100168004C084D04031DB928BA28BE287A1DBD289D
:10017800BE28C228FF30CA07FF30CB3D1F30D6004B
:100188000030D7004201BF013229FF304001D607B5
:10019800FF30D73D0A30A000A101A201A301A401AC
:1001A800A501A601A7014E08A8004F08A9005008FC
:1001B800AA005108AB005208AC005308AD0054081F
:1001C800AE005508AF008231AA22803140012108D3
:1001D800F6002008F50086318C2680317508303EFF
:1001E8004001C2005608203E8600013087004208C0
:1001F8008100FF30C807FF30C93DFF30CA07FF3014
:10020800CB3D0A30A000A101A201A301A401A501D0
:10021800A601A7014E08A8004F08A9005008AA0087
:100228005108AB005208AC005308AD005408AE00AA
:100238005508AF008131A621803140012008CE0049
:100248002108CF002208D0002308D1002408D200BA
:100258002508D3002608D4002708D50040015708F0
:10026800803AC20080304202031D3C290130560208
:10027800031C3F2940296C2940014E084F045004B3
:1002880051045204530454045504031D4C294D29A8
:10029800C9284908803AC20080304202031D562905
:1002A80001304802031859295A29C92840014B0826
:1002B800803AC20080304202031D642901304A029C
:1002C800031C672968296C29FA186B296C29C92825
:1002D80040014C084D04031D7229732977297A1DA2
:1002E800762977299329FF30D607FF30D73D4C0868
:1002F8004D04031D8029812986292B30C600003032
:10030800C7008A292D30C6000030C7004608C20041
:100318005608203E860001308700420881005608B2
:10032800203EC2004208A8004B08AA004A08A900BB
:10033800450884316F24803140012908BB00280812
:10034800BA0008004001B101203086000030870063
:10035800473FF200F21FB129B229D4294001A00970
:10036800A109A209A309A409A509A609A709A00A20
:10037800031DD129A10A031DD129A20A031DD129D0
:10038800A30A031DD129A40A031DD129A50A031D07
:10039800D129A60A031DD129A70A4001B101B10A32
:1003A8002830860000308700473FF200F21FDD2921
:1003B800DE29022A4001A809A909AA09AB09AC0942
:1003C800AD09AE09AF09A80A031DFD29A90A031D35
:1003D800FD29AA0A031DFD29AB0A031DFD29AC0A44
:1003E800031DFD29AD0A031DFD29AE0A031DFD29C4
:1003F800AF0A0130F20072084001B10632308600BF
:10040800003087000830F20000301E00F20B092A85
:10041800400120082104220423042404250426047E
:1004280027040319182A192A752AB001B00A282A9C
:10043800A035A10DA20DA30DA40DA50DA60DA70D08
:100448000130F2007208B007A71F2B2A2C2A1C2A99
:10045800B235B30DB40DB50DB60DB70DB80DB90D58
:1004680027082F02031D522A26082E02031D522A8E
:1004780025082D02031D522A24082C02031D522A86
:1004880023082B02031D522A22082A02031D522A7E
:1004980021082902031D522A20082802031C552A74
:1004A800562A672A2008A8022108A93B2208AA3B45
:1004B8002308AB3B2408AC3B2508AD3B2608AE3BE4
:1004C8002708AF3B3214A736A60CA50CA40CA30C26
:1004D800A20CA10CA00C0130B002031D742A752ACD
:1004E8002C2A31080319792A7A2A982AB209B309D9
:1004F800B409B509B609B709B809B909B20A031D9B
:10050800982AB30A031D982AB40A031D982AB50A23
:10051800031D982AB60A031D982AB70A031D982AAC
:10052800B80A031D982AB90A40013208A000330806
:10053800A1003408A2003508A3003608A400370833
:10054800A5003808A6003908A7000800F4012830DB
:10055800860000308700473FF200F21FB42AB52A10
:10056800D62A4001A809A909AA09AB09AC09AD090D
:10057800AE09AF09A80A031DD42AA90A031DD42A63
:10058800AA0A031DD42AAB0A031DD42AAC0A031DE8
:10059800D42AAD0A031DD42AAE0A031DD42AAF0AF1
:1005A800F401F40A2030860000308700473FF2004B
:1005B800F21FDF2AE02AFF2A4001A009A109A209A7
:1005C800A309A409A509A609A709A00A031DFF2ACA
:1005D800A10A031DFF2AA20A031DFF2AA30A031D5D
:1005E800FF2AA40A031DFF2AA50A031DFF2AA60A3B
:1005F800031DFF2AA70A400120082104220423041E
:10060800240425042604270403190B2B0C2B5F2B29
:10061800F301F30A1B2BA035A10DA20DA30DA40D08
:10062800A50DA60DA70D0130F2007208F307A71F4C
:100638001E2B1F2B0F2B27082F02031D3D2B2608CF
:100648002E02031D3D2B25082D02031D3D2B2408DA
:100658002C02031D3D2B23082B02031D3D2B2208D2
:100668002A02031D3D2B21082902031D3D2B2008CA
:100678002802031C402B412B512B2008A8022108DB
:10068800A93B2208AA3B2308AB3B2408AC3B25081E
:10069800AD3B2608AE3B2708AF3BA736A60CA50CFA
:1006A800A40CA30CA20CA10CA00C0130F302031D96
:1006B8005E2B5F2B1F2B74080319632B642B822B73
:1006C800A809A909AA09AB09AC09AD09AE09AF097E
:1006D800A80A031D822BA90A031D822BAA0A031D3F
:1006E800822BAB0A031D822BAC0A031D822BAD0A99
:1006F800031D822BAE0A031D822BAF0A4001280876
:10070800A0002908A1002A08A2002B08A3002C0891
:10071800A4002D08A5002E08A6002F08A700080091
:100728004001E700580886008701403FDA00413F52
:10073800DB005A0884005B0885001200253A031D77
:10074800A62BA72B4B2C5808860087010130810760
:1007580041310318810A4101A201A301FA01FB01F9
:10076800FF30A400FF30A50040015808860087012B
:10077800403FDA00413FDB005A0884005B088500EF
:100788001200643A0319C92BCA2BDB2B58088600C0
:100798008701403FDA00413FDB005A0884005B08CC
:1007A80085001200693A031DDA2BDB2B162C58083A
:1007B800860087010130810741310318810A5908F1
:1007C8008600870101088400850102308107003F07
:1007D800DA00013FDB005A08DF005B08E000890D02
:1007E800893B8909E100E200E300E400E500E60056
:1007F8005F08BA006008BB006108BC006208BD0061
:100808006308BE006408BF006508C0006608C10030
:10081800670880313D20833140013B08D9003A0800
:10082800D8006E2C580886008701403FDA00413F07
:10083800DB005A0884005B0885001200253A031D76
:10084800262C272C402C5808860087010130810768
:1008580041310318810A2530F2000030F30067089F
:10086800DA005A08F4008431C5248331013040018C
:10087800D8000030D9006E2C580886008701013056
:10088800810741310318810AD801D9016E2C580813
:1008980086008701403FDA00413FDB005A088400A8
:1008A8005B0885000008DC00DD015C08F2005D08DB
:1008B800F3006708DE005E08F4008431C524833144
:1008C800400158088600870101308107413103182B
:1008D800810A3A2C08004001B0007A1C742C752C4F
:1008E8007D2C3008AB002B08A00028088531DF25B7
:1008F80084314001AA1B812C822C872C2A08AF0046
:100908002908AE00892CAE01AF01AC01AD019D2CC8
:100918002030F2000030F30040013008AB002B0813
:10092800F4008431C524843101304001AC07003023
:10093800AD3D2D08803AAB002F08803A2B02031DED
:10094800A72C2E082C02031CAA2CAB2C8C2C7A1852
:10095800AE2CAF2CB82C40013008AB002B08A000FF
:1009680028088531DF258431400128088631722620
:10097800843140012E087207A8002F08733DA90092
:10098800080074080319C92CCA2CCF2C7408031D3D
:10099800CE2CCF2CD42C7208873141278431162DC8
:1009A8007408083E86008701160001040319DD2C2F
:1009B800DE2CFC2C7408083E86008701403FF500B9
:1009C800413FF6007408023E86008701403FF70069
:1009D800413FF8007808803AF9007608803A7902B1
:1009E800031DF82C750877020318FB2CFC2C162D18
:1009F8007208F5007408860087017408023E8400B6
:100A0800850100080107F600760886008701750849
:100A180081007408023E8600870101308107413158
:100A28000318810A08008631CD2685318731382799
:100A380085318B170B17410128032904031D252D28
:100A4800262D3D2D0D30D3008730D400BF30E30074
:100A58006308D500AB30863108268531AB30863146
:100A6800A62685310A308631E82685314101A8015C
:100A7800A90103304101E4000830E3007730890B15
:100A8800432DE30B432DE40B432D1F2D80312528E7
:100A98004001980199019A013F309200F03093008B
:100AA800DF309400C7307E01CE00F030C30037300D
:100AB800B800C401B9010830CF00BA01C501D0019E
:100AC8003F30BB00C6013F30D1003F30BC00C701FA
:100AD8003F30D200D511D415D3110030F2000030C8
:100AE800F3008731202785314E0116160F307E011D
:100AF800A50008004001ED006908EF006808EE0055
:100B08004101A001A1019C2D6E30EB006B08D800BB
:100B18006A08EC006C08D9006D088331942385318C
:100B2800400158084101A007400159084101A13D71
:100B380040016E0884006F0885001200031DA52D72
:100B4800A62D882D410121084001E9004101200816
:100B58004001E80008004E01101041016E08F10044
:100B68006D08F0008631BC2685310030410127022E
:100B78000D30031926020318C22DC32DD22D2608C5
:100B8800BF3E86008701003040018E190130810088
:100B980001304101A6070030A73DDE2D7E01D515A5
:100BA8004E01161687313B27853101304101A800D7
:100BB8000030A90008004001A700A501A601F72DF3
:100BC8002408A100A2012108F2002208F30020084D
:100BD800A3002308F4008431C52485310130400185
:100BE800A5070030A63D25082707A1002108860093
:100BF800013087000108A2002208A4002408031D70
:100C0800062E072EE42D08004101D800D530D60065
:100C18005608D7005808D6005608D900DB01DC0171
:100C2800E101E20154084001E90041015308400193
:100C3800E800D7304101D60056084001EA00D93013
:100C480085317E25863141015B085807D600560854
:100C58008600870181010800083042019F0080302A
:100C68009D0024309E0022309B009C010030F20041
:100C78000030F30087312C2786310030F200003035
:100C8800F3008731262786310030F2000030F30068
:100C98008731322786314101AA01080044018F01BA
:100CA80090010230910075308D0018308C004E0193
:100CB800101044010D084101EE0044010C084101E7
:100CC800ED004E011A140030F2000030F3008731B5
:100CD8001A278631073044018E000800F60076088E
:100CE800F4007408F5007C2E0130F4007408F6074F
:100CF80076088600013087000108031D842E852EA2
:100D0800782E75087602F200F301F21BF30308004F
:100D18007608803AF70080307702031D952E01305F
:100D280075020318982E992EA52E7509F7007609D5
:100D3800F800F70A0319F80A7708F5007808F600AA
:100D4800A52E0800F400B32E740886008701010858
:100D58008631E82686310130F3007308F4077408F9
:100D6800860087010108031DBA2EBB2EA82E080095
:100D780044010E1DC02EC12EC82E0E1071088D0004
:100D880070088C000E14CC2E71088D0070088C0031
:100D9800080087310527863185314C258631863113
:100DA800F2268631863152268631863130268631C2
:100DB800080087313E2786317E01D5114E01161273
:100DC8004101A601A7010800F2004E010F1EED2EF9
:100DD800EE2EE92E720842019A0008006130510196
:100DE8008D008F0191010630930090019201080057
:100DF8007E01D51D002F012F042F8631DD26863177
:100E080008004F0196019701980199019A019B01E9
:100E18000800493452343D342034253464340034D5
:100E2800640080010131890B152F003473084101DA
:100E3800EC007208EB00080073084101EA00720830
:100E4800E900080073084101E6007208E50008009F
:100E580073084101E8007208E700080073084201BE
:100E6800C1007208C000080044010E1008004401C7
:0C0E78000E10080044010E1408000800D1
:020000040001F9
:08000000FF3FFF3FFF3FFF3F00
:0A000E00EC3FFF3F9F3FFF3FFF3F25
:00000001FF
