:0400000080313D28E6
:100008007E1480314E01161E0A280B2813280C1E58
:100018000E280F2813288131AD2180313B280B1F72
:10002800162817283B289C1C1A281B282328921CB2
:100038001E281F2823288031552080313B289A1CF0
:10004800262827282F28901C2A282B282F2881315A
:10005800BE2180313B281A1C322833283B28101C2B
:10006800362837283B2881317D2180313B287E1076
:10007800090080313F282830840021308500C830AD
:10008800FE000030FF00813197218031F801F9012D
:10009800FA01FB014001A801A9017E10400181314C
:1000A8003F294E01921046011008F0007008F60032
:1000B8001108F0007008F70077084001A9007608D9
:1000C800A80045018E1778087904031D6C286D284F
:1000D800B12800307B02323003197A0203187528E0
:1000E8007628A9287B08F1007A08F000F035F10D90
:1000F8008C30F2002130F300700872078600710816
:10010800733D870040012808C03F2908C13F0130DE
:10011800FA070030FB3D0E0D0E0D0139F000F1011C
:100128007B08F3007A08F200F235F30D2830F4006A
:100138002130F5007208740786007308753D870042
:100148007008C03F7108C13FB1284E0190140130BA
:10015800F8000030F900FA01FB0144018C018D011F
:1001680008004001980199019A013F309200F0304F
:100178009300FF3094007F307E01CE00F030C30042
:100188003730B800C401B901CF01BA01C501D001A7
:100198003F30BB00C6013F30D1003F30BC00C70133
:1001A8003F30D200D513D417D313E0304001AA0052
:1001B8000130AB008131D22180314E011616173043
:1001C8007D01A200080044018F01900101309100D7
:1001D8008D018C014E01101044010D08FD000C0822
:1001E800FC004E011A14DF304001AA000130AB00B8
:1001F8008131CC218031033044018E000800013068
:10020800450190008F019101F9308D008C014E015C
:1002180090109A14DE304001AA000130AB00813101
:10022800C62181316E3045018E0008008131B6212A
:1002380081318031B52081318131A32181318131F2
:100248000321813181312D2181318031E7208131B4
:10025800080083304601920093019101900100301B
:100268004001AA000030AB008131D82181314E0114
:1002780092109C14080081311A2181318B170B17B9
:1002880078037904031D49294A2944290000F80103
:10029800F901442980313D2844010E1D542955296E
:1002A8005C290E1071088D0070088C000E146029EE
:1002B80071088D0070088C0008004001260827048A
:1002C8000319672968296D2927088A0026080A0062
:1002D80081317E01D513080040012008210403194B
:1002E800762977297C2921088A0020080A0081318B
:1002F80008004E0110107D08F1007C08F0008131E3
:100308005021813181318A21813108004001220840
:100318002304031990299129962923088A00220881
:100328000A00813108006400800101310130FE02B9
:100338000030FF3B7F087E04031D9829003460309D
:1003480051018D008F0191010630930090019201B7
:1003580008007E01D51FB129B229B5298131612153
:10036800813108004F0196019701980199019A017E
:100378009B0108004E01901045018E1381317021B8
:100388008131080040012B08A1002A08A0000800BC
:1003980040012B08A3002A08A200080040012B08EE
:1003A800A7002A08A600080040012B08A5002A0873
:0A03B800A400080008000800080077
:020000040001F9
:08000000FF3FFF3FFF3FFF3F00
:0A000E00EC3FFF3F9F3FFF3FFF3F25
:00000001FF
