:0400000080312528FE
:100008007E1480314E01161C0A280B2813280C1C5C
:100018000E280F28132880313320803123280B1F06
:100028001628172823281A1C1A281B282328101CCE
:100038001E281F28232882311322803123287E106E
:1000480009008031272820308400003085000E30D8
:100058008231902280317E1040018231802A4E0107
:100068000C100C1838283928AF2899284B019C0106
:100078004E0196168C124001A701A801A901013072
:10008800F9007908A000AD284B011C08F90079088F
:100098004001A2004B019C010230F0000030F10049
:1000A80040012208F900FA017908F2007A08F30001
:1000B8008031F8208031700840012207FB007B085E
:1000C800A3002235F9007908A4000830F0000030B8
:1000D800F1002208F900FA017908F2007A08F30021
:1000E8008031F82080317008FB007B084001A500B2
:1000F8000130F9007908A6000230F9007908A0005B
:10010800AD28813157218031003A031D8C288D2874
:1001180093280230F90079084001A000AD284E016B
:100128008C16AD284E018C16AD2840012008F90028
:10013800FA017A08003A0319A22896287908003AA1
:1001480003193A28013A03194828033A031985285C
:1001580096284E010C10961EB228B328F7280B30AB
:1001680040012706031DB928BA28BE28003081316E
:10017800FC2180310C3040012706031DC428C52806
:10018800F2280830203E86008701403FF900413FB1
:10019800FA000630FA36F90C890BCE2879081F398F
:1001A800FB007B08AB0028083F39F9007908AC0050
:1001B8000830203E86008701403FF900413FFA00A1
:1001C8000B30FA36F90C890BE52879080139FB0060
:1001D8007B08AA000130F9007908AD004E0196129B
:1001E8008C124001A0010800F601F11FFC28FD282F
:1001F8000429F009F109F00A0319F10AF601F60ACF
:10020800F31F072908291129F209F309F20A03192A
:10021800F30A0130F4007408F606F701F8017008D3
:1002280071040319182919294829F501F50A2529FE
:100238000130F035F10D890B1D290130F4007408E7
:10024800F507F11F282929291C290130F735F80D50
:10025800890B2A2971087302031D34297008720258
:10026800031C372938293D297008F2027108F33B2D
:1002780077140130F136F00C890B3E290130F50274
:10028800031D472948292929760803194C294D298E
:100298005229F709F809F70A0319F80A7808F1004A
:1002A8007708F00008004B011C08F30073084001B0
:1002B800A1004B019C01400121082507F3007308A8
:1002C800F40025082102F3007308F50075082202DE
:1002D800031C6F2970297B2922087402031C7529C5
:1002E80076297B2982314A22813100309C29750880
:1002F8002302031C802981298B2923087402031CEB
:10030800862987298B298131E1218131792975084D
:100318002402031C902991299B2924087402031C98
:10032800962997299B2982316822813179290130C0
:1003380008004001980199019A013F309200F0307D
:100348009300FF309400FF307E01CE007030C30070
:100358003730B8008030C400B901CF01BA01C501F7
:10036800D0013F30BB00C6013F30D1003F30BC0058
:10037800C7013F30D2000F307D01900008004401D2
:100388008F01900101309100C1308D0080308C00C8
:100398004E01101044010D08FD000C08FC004E0130
:1003A8001A14A2304001B2000230B3008231962202
:1003B8008131333044018E00080040012603031DBB
:1003C800E629E729EE2900308131FC2181314001FD
:1003D800A601FB2900308131FC21813101308131B6
:1003E800FC2181310130F20072084001A6000800AA
:1003F800F10001304001A835A90D890BFF297103CF
:10040800031D072A082A0A2A28140E2AFE30A805DE
:100418000F30A9050130F0007008A70708004E0149
:1004280010107D08F1007C08F00082312922823109
:1004380040012E082F040319222A232A282A2F08CC
:100448008A002E080A008231080044010E1D2D2A58
:100458002E2A352A0E1071088D0070088C000E1493
:10046800392A71088D0070088C00080082318822B2
:10047800823181319D2182318231762282318231ED
:100488005A2282318131C32182310800400126037A
:10049800031D4F2A502A552A01308131FC2182310F
:1004A800592A00308131FC21823108004E010C109C
:1004B8000B1000304001B2000030B30082319C22A2
:1004C80082314E011614080000308131FC2182313E
:1004D80001308131FC2182310130F2007208400183
:1004E800A6000800603051018D008F019101033092
:1004F800930090019201080082313A2282318B17D1
:100508000B17852A803125284F01960197019801FC
:1005180099019A019B010800640080010131890B4F
:10052800912A003440013308AF003208AE000800B9
:0E05380040013308B1003208B000080008008E
:020000040001F9
:08000000FF3FFF3FFF3FFF3F00
:0A000E00EC3FFF3F9F3FFF3FFF3F25
:00000001FF
