:0400000067EF00F0B6
:100008005782FACF05F0FBCF06F0D9CF07F0DACF49
:1000180008F0F2AC12EF00F014EF00F05DEF00F022
:100028000E01C8A31AEF00F01CEF00F027EF00F054
:10003800D0A321EF00F023EF00F027EF00F0C5EC8C
:100048000BF05DEF00F0C3A12CEF00F02EEF00F0F5
:1000580039EF00F0CBA133EF00F035EF00F039EFC6
:1000680000F077EC0EF05DEF00F0C6A53EEF00F073
:1000780040EF00F04BEF00F0CEA545EF00F047EF62
:1000880000F04BEF00F082EC0FF05DEF00F0C6A13E
:1000980050EF00F052EF00F05DEF00F0CEA157EF07
:1000A80000F059EF00F05DEF00F08DEC0FF05DEF20
:1000B80000F008C0DAFF07C0D9FF06C0FBFF05C083
:1000C800FAFF57921100818E6AEF00F01BEF0EF0D5
:100F0000003030313130303030313130303030300D
:100F100031313030303131313030313030303030CB
:100F2000303130313131313131002564000026C09B
:100F30003EF027C03FF028C040F029C041F02AC051
:100F400042F02BC043F02CC044F02DC045F045BE0C
:100F5000ACEF07F0AFEF07F0010EB0EF07F0000EB7
:100F60003C6E3D6A3C503D10D8B4B9EF07F0BBEF82
:100F700007F0CBEF07F0451E441E431E421E411EE4
:100F8000401E3F1E3E6C000E3F2240224122422264
:100F90004322442245224FBED0EF07F0D2EF07F0A4
:100FA000D3EF07F050924FBEE0EF07F04F5006E14D
:100FB0004E04D8B0DEEF07F0E0EF07F0E6EF07F001
:100FC000000E396E010E386EEAEF07F04EC038F0B1
:100FD0004FC039F082C03AF083C03BF03C503D1026
:100FE000D8A4F5EF07F0F7EF07F0FEEF07F050A4F5
:100FF000FCEF07F0FEEF07F001EF08F03A06D8A08B
:101000003B06000E476E1F0E466E000E0001AA6FD3
:1010100086EF08F04606D8A047068B0E4624D96E08
:10102000000E4720DA6E3EC009F03FC00AF040C013
:101030000BF041C00CF042C00DF043C00EF044C0B4
:101040000FF045C010F00A0E116E000E126E000E69
:10105000136E000E146E000E156E000E166E000E4E
:10106000176E000E186EAEEC0AF009C02EF00AC022
:101070002FF00BC030F00CC031F00DC032F00EC0BC
:1010800033F00FC034F010C035F02EC01BF030C06C
:101090001CF03CEC0EF01B50300FDF6E3806D8A071
:1010A00039063A06D8A03B063EC009F03FC00AF018
:1010B00040C00BF041C00CF042C00DF043C00EF038
:1010C00044C00FF045C010F00A0E116E000E126EF3
:1010D000000E136E000E146E000E156E000E166ECE
:1010E000000E176E000E186EEAEC09F009C03EF013
:1010F0000AC03FF00BC040F00CC041F00DC042F000
:101100000EC043F00FC044F010C045F047BE91EF51
:1011100008F0475008E14604D8A091EF08F093EF9B
:1011200008F0C3EF08F03E503F104010411042104D
:10113000431044104510D8A4A0EF08F0A2EF08F027
:101140000AEF08F039BEAFEF08F0395006E1380475
:10115000D8B0ADEF08F0AFEF08F00AEF08F03BBEF3
:10116000BAEF08F03B5008E13A04D8A0BAEF08F013
:10117000BCEF08F0C3EF08F050B2C1EF08F0C3EFC6
:1011800008F00AEF08F03C503D10D8A4CAEF08F070
:10119000CCEF08F0D3EF08F050A4D1EF08F0D3EF74
:1011A00008F0F1EF08F04606D8A047063C503D1085
:1011B000D8A4DDEF08F0DFEF08F0E5EF08F0000E4F
:1011C000376E2B0E366EE9EF08F0000E376E2D0EDF
:1011D000366E8B0E4624D96E000E4720DA6E36C06E
:1011E000DFFF24C019F025C01AF08B0E46241B6EB9
:1011F000000E47201C6E3AC01DF03BC01EF029ECCB
:101200000CF019C024F01AC025F012004AC0D9FF12
:101210004BC0DAFFDECFF6FFDDCFF7FF000EF86E32
:101220000800F550250AD8A418EF09F01AEF09F0C4
:10123000CCEF09F04AC0D9FF4BC0DAFFDE2A000E1E
:10124000DD22000E0001836F000E826F82C050F01D
:1012500083C051F04E684F684AC0D9FF4BC0DAFFD7
:10126000DECFF6FFDDCFF7FF000EF86E0800F55079
:10127000640AD8B43EEF09F040EF09F054EF09F0EA
:101280004AC0D9FF4BC0DAFFDECFF6FFDDCFF7FF54
:10129000000EF86E0800F550690AD8A452EF09F064
:1012A00054EF09F094EF09F04AC0D9FF4BC0DAFFC0
:1012B000DE2A000EDD224CC0D9FF4DC0DAFFDFCFA1
:1012C000ABF0020EDE26DFCFACF0000EDD22ABC0AD
:1012D000D9FFACC0DAFFDECFADF0DDCFAEF0000E4F
:1012E000AEBFFF0EAF6FB06FB16FB26FB36FB46FC1
:1012F00048C024F049C025F0ADC026F0AEC027F0AC
:10130000AFC028F0B0C029F0B1C02AF0B2C02BF0B5
:10131000B3C02CF0B4C02DF097EC07F024C048F017
:1013200025C049F0E9EF09F04AC0D9FF4BC0DAFF08
:10133000DECFF6FFDDCFF7FF000EF86E0800F550A8
:10134000250AD8A4A6EF09F0A8EF09F0BFEF09F02D
:101350004AC0D9FF4BC0DAFFDE2A000EDD22000EA4
:101360000A6E250E096E48C00BF049C00CF060EC07
:101370000BF0000E496E010E486EE9EF09F04AC00D
:10138000D9FF4BC0DAFFDE2A000EDD22000E496EC7
:10139000000E486EE9EF09F04AC0D9FF4BC0DAFFF2
:1013A000DECFF6FFDDCFF7FF000EF86E0800F55038
:1013B000096E0A6A48C00BF049C00CF060EC0BF0F3
:1013C0004AC0D9FF4BC0DAFFDE2A000EDD22B9EF9A
:1013D00009F01200000E1A6E18BEF3EF09F0F1EFDB
:1013E00009F005EF0AF0181E171E161E151E141E12
:1013F000131E121E116C000E12221322142215222B
:10140000162217221822010E1A6E10BE0CEF0AF0D7
:101410000AEF0AF01EEF0AF0101E0F1E0E1E0D1E20
:101420000C1E0B1E0A1E096C000E0A220B220C2237
:101430000D220E220F221022010E1A1A20EE1BF08E
:10144000070EDE6AE806FDE21150121013101410A8
:101450001510161017101810D8B431EF0AF033EF2A
:101460000AF085EF0AF0010E196E41EF0AF0D890EC
:101470001136123613361436153616361736183618
:10148000192A18AE46EF0AF048EF0AF037EF0AF0D3
:10149000D8901B361C361D361E361F362036213698
:1014A00022361150095C12500A5813500B58145030
:1014B0000C5815500D5816500E5817500F581850FC
:1014C0001058D8A066EF0AF068EF0AF079EF0AF03A
:1014D0001150095E12500A5A13500B5A14500C5AEC
:1014E00015500D5A16500E5A17500F5A1850105AC0
:1014F0001B80D8901832173216321532143213323C
:1015000012321132192E48EF0AF01A50D8B48BEF6C
:101510000AF08DEF0AF09DEF0AF0221E211E201E18
:101520001F1E1E1E1D1E1C1E1B6C000E1C221D22BB
:101530001E221F222022212222221BC009F01CC0B1
:101540000AF01DC00BF01EC00CF01FC00DF020C033
:101550000EF021C00FF022C010F01200000E1A6E23
:1015600010BEB7EF0AF0B5EF0AF0C9EF0AF0101E8F
:101570000F1E0E1E0D1E0C1E0B1E0A1E096C000EE9
:101580000A220B220C220D220E220F221022010E03
:101590001A6E18BED0EF0AF0CEEF0AF0E0EF0AF0B4
:1015A000181E171E161E151E141E131E121E116C59
:1015B000000E12221322142215221622172218229C
:1015C00011501210131014101510161017101810B7
:1015D000D8B4EDEF0AF0EFEF0AF037EF0BF0010EA1
:1015E000196EFDEF0AF0D890113612361336143604
:1015F0001536163617361836192A18AE02EF0BF0C4
:1016000004EF0BF0F3EF0AF01150095C12500A5886
:1016100013500B5814500C5815500D5816500E58A6
:1016200017500F5818501058D8A019EF0BF01BEF97
:101630000BF02BEF0BF01150095E12500A5A1350A9
:101640000B5A14500C5A15500D5A16500E5A17506A
:101650000F5A1850105AD8901832173216321532C5
:101660001432133212321132192E04EF0BF01A50C9
:10167000D8B43DEF0BF03FEF0BF04FEF0BF0101E27
:101680000F1E0E1E0D1E0C1E0B1E0A1E096C000ED8
:101690000A220B220C220D220E220F22102209C038
:1016A00009F00AC00AF00BC00BF00CC00CF00DC022
:1016B0000DF00EC00EF00FC00FF010C010F01200B1
:1016C0000B500C10D8B467EF0BF069EF0BF072EF12
:1016D0000BF00B500C10D8A470EF0BF072EF0BF066
:1016E00077EF0BF00950CBEC0FF0C4EF0BF020EECE
:1016F00009F00B50D9260C50DA22DE50DE10D8B497
:1017000084EF0BF086EF0BF0A1EF0BF020EE09F069
:101710000B50D9260C50DA2210EE03F00B50E126C4
:101720000C50E222DE50E65CE650800A116EDE507C
:10173000800A1158D8B09FEF0BF0A1EF0BF0C4EF67
:101740000BF020EE03F00B50D9260C50DA22DECF3E
:101750000DF0DDCF0EF00BC0D9FF0CC0DAFFDECFED
:101760000FF0DDCF10F00D500F24D96E0E50102069
:10177000DA6E09C0DFFF20EE03F00B50D9260C50C3
:10178000DA22DE2A000EDD2212000E01D093A6CF4F
:1017900003F0A7CF04F003C088F004C089F0000173
:1017A000875107E10F0E865DD8B0D9EF0BF0DBEF64
:1017B0000BF0EAEF0BF0D8908635D96E8735DA6EEC
:1017C000640ED926010EDA2288C0DEFF89C0DDFF53
:1017D000864B872B000EC86E000EC76E8EA0F3EFEF
:1017E0000BF0F5EF0BF000EF0CF0840E885D030EAC
:1017F0008959D8B0FEEF0BF000EF0CF01AEF0CF0A7
:1018000055501F0B016E026A600E0124D96E000E46
:101810000220DA6E300EDF6E010E016E55501F0B86
:10182000026E0150022655500218E00B0218556E48
:1018300028EF0CF055501F0B016E026A600E012458
:10184000D96E000E0220DA6E310EDF6E0CEF0CF056
:10185000120050A02EEF0CF030EF0CF03AEF0CF02D
:101860001BC012F01CC013F019C014F01AC015F000
:10187000F9EC0DF01EBE3FEF0CF041EF0CF047EF1E
:101880000CF01DC022F01EC023F04BEF0CF0000E38
:10189000236E000E226E000E216E000E206E5DEF94
:1018A0000CF0000E0A6E200E096E19C00BF01AC063
:1018B0000CF060EC0BF0204A212A2250205C2150D1
:1018C000800A1F6E2350800A1F58D8A06AEF0CF0C0
:1018D0006CEF0CF051EF0CF050B071EF0CF073EFB7
:1018E0000CF07DEF0CF01BC012F01CC013F019C0FF
:1018F00014F01AC015F0F9EC0DF01BC009F01CC073
:101900000AF05CEC0EF022500924196E23500A20D4
:101910001A6E120049EC0FF0F28EF28C160E096E60
:101920001E0E0A6E000E0B6E9FEC0FF0140EF4EC00
:101930000EF009C0E9F00AC0EAF0140EF4EC0EF063
:1019400009C0E7F00AC0E8F0000E0001BD6F010E0B
:10195000BE6F2A0EBF6F0F0EC06FE7C0C1F0E8C0A8
:10196000C2F060EC0DF0000E0A6E010E0B6EC4ECBE
:101970000EF00A0E6AEC0FF0030E0001D16F080E94
:10198000D06F770EE82EFED7D02FFCD7D12FFAD705
:1019900096EF0CF06AEF00F0B7C0BBF0B8C0BCF037
:1019A000000E0001816F000E806FEAEF0CF0B5C0F1
:1019B00048F0B6C049F0BB0E4A6E000E4B6EB9C07F
:1019C0004CF0BAC04DF006EC09F0485000018027F9
:1019D00049508123BBC0F6FFBCC0F7FF000EF86E74
:1019E0000800F5500009D8A4F8EF0CF0FAEF0CF05D
:1019F000D7EF0CF080C0B5F081C0B6F01200000E39
:101A00006A6E000E6B6E000E6C6E000E6D6E000E38
:101A1000686E000E696E000E666E000E0F015F6F3D
:101A2000000E5D6F000E5E6F000E596F000E5A6F54
:101A3000000E5B6F000E656E000E586F000E566F45
:101A40003F0E576F940E606E000E5C6F0E01CB91CF
:101A5000C3819C0E096E1F0E0A6E000E0B6EC2EC47
:101A60000FF01200000E836E000E846E000E856E65
:101A7000FC0E886E89687F0E8A6E7F0E0F01216FC3
:101A8000FE0E196FFC0E116F000E2D6F000E186FF9
:101A9000000E106F000E206F000E0F6F000E176FFC
:101AA000000E1F6F0E6916691E690D6915691D69A3
:101AB000080E2A6F080E0E01B06F0B0EFE6F12009B
:101AC000C10E0001C36F000EC46FBDC0C5F0BEC023
:101AD000C6F0000EC96F000EC86F000ECF6F000E6B
:101AE000CE6FC50EB56F000EB66FBFC0B7F0C0C0E9
:101AF000B8F0C30EB96F000EBA6FCCEC0CF0000159
:101B0000C851BD25D96EC951BE21DA6E000EDF6EF7
:101B10001200080E0E019F6F800E9D6F240E9E6FA7
:101B2000220E9B6F000E9C6F000E096E000E0A6E57
:101B3000000E0B6EADEC0FF0000E096E000E0A6E7B
:101B4000000E0B6EA6EC0FF0000E096E000E0A6E72
:101B5000000E0B6EB4EC0FF0000E566E1200000E6D
:101B6000CA6E000ECB6E010ECC6ED80EC86EF00E93
:101B7000C76E0E01CE95C750C8CF0CF00D6A0CC0D1
:101B80000DF00C6A0C100001EB6F0D50EC6F0E01A4
:101B9000C685980E096E1F0E0A6E000E0B6E98EC2D
:101BA0000FF0270EC96E1200000ED06E000ED16E1F
:101BB000010ED26ED80ECE6EF00ECD6E0E01CE910D
:101BC000CD50CECF0CF00D6A0CC00DF00C6A0C108D
:101BD0000001ED6F0D50EE6F0E01C6819A0E096E79
:101BE0001F0E0A6E000E0B6E9FEC0FF0270ECF6ECD
:101BF0001200000E186E000E176E0AEF0EF016C0DF
:101C000009F00A6A14C00BF015C00CF060EC0BF080
:101C1000174A182A17501224D96E18501320DA6E5A
:101C2000DF50166E1650D8A418EF0EF01AEF0EF013
:101C3000FFEF0DF0120001EE64F017EED0F0EE6A47
:101C4000E550E150FCE1E250FAE101EE00F0640EF3
:101C5000EE6AE806FDE100EE60F04B0EEE6AE80683
:101C6000FDE100EE4EF0090EEE6AE806FDE1579048
:101C7000579200018AEF0CF01CBE49EF0EF01C5089
:101C800006E11B04D8B047EF0EF049EF0EF057EF16
:101C90000EF01BC01DF01CC01EF01D1E1E1E1D4A96
:101CA0001E2A1DC01BF01EC01CF05BEF0EF01BC0F7
:101CB0001BF01CC01CF0120009C00BF00AC00CF095
:101CC00064EF0EF0094A0A2A09C0D9FF0AC0DAFFF8
:101CD000DF50D8A46EEF0EF070EF0EF062EF0EF052
:101CE0000B50095C096E0C500A580A6E12000E0166
:101CF000CB910001D551D611D711D8B482EF0EF097
:101D000084EF0EF091EF0EF002D891EF0EF0050087
:101D1000FA6ED551FD6ED651FE6ED751FF6EFA5058
:101D2000120012000001D251D311D411D8B49BEF8C
:101D30000EF09DEF0EF0AAEF0EF002D8AAEF0EF013
:101D40000500FA6ED251FD6ED351FE6ED451FF6E76
:101D5000FA50120012000001DB51DC11DD11D8B481
:101D6000B4EF0EF0B6EF0EF0C3EF0EF002D8C3EFF3
:101D70000EF00500FA6EDB51FD6EDC51FE6EDD519A
:101D8000FF6EFA5012001200CFEF0EF00AC0D9FF1A
:101D90000BC0DAFFDF506AEC0FF00A4A0B2A0AC0C8
:101DA000D9FF0BC0DAFFDF50D8A4D9EF0EF0DBEF7C
:101DB0000EF0C6EF0EF01200830EA86E000EA96E94
:101DC000000EA76E000EA66E000E096E000E0A6EC3
:101DD000000E0B6EBBEC0FF0AE50F30B0809AE6EAD
:101DE0000E01D093C88312000D6E0DC05FFF608E90
:101DF000609C608060B0FFEF0EF001EF0FF0FAEF33
:101E00000EF064500C6E0B6A63500B24096E000ECA
:101E10000C200A6E1200000184518511D8B413EF12
:101E20000FF015EF0FF01AEF0FF08407D8A0850719
:101E300020EF0FF0000E856F0A0E846F000E546EB7
:101E40001200C9A426EF0FF028EF0FF030EF0FF0CB
:101E5000C9900250C86E01C0C7FFC98034EF0FF0AF
:101E60000250C86E01C0C7FF1200CFA43AEF0FF0B6
:101E70003CEF0FF044EF0FF0CF900250CE6E01C058
:101E8000CDFFCF8048EF0FF00250CE6E01C0CDFFE6
:101E90001200C9EC0FF05CEC0FF032EC0DF076ECB8
:101EA0000FF0DCEC0EF0FFEC0CF0AFEC0DF0D4EC2E
:101EB0000DF089EC0DF01200000E0E01E16F000E26
:101EC000E26F000EE36F000EE46F000EE56F000E90
:101ED000E66F1200096E0E01CDAD71EF0FF073EFDA
:101EE0000FF06BEF0FF009C09AFE1200610E0E01A9
:101EF000D86F000EDA6F000EDC6F060EDE6F000E7C
:101F0000DD6F12000E01CE95EBC001F0ECC002F0C7
:101F100021EC0FF092EC0EF012000E01CE91EDC00C
:101F200001F0EEC002F035EC0FF0ABEC0EF0120059
:101F300009C0D2F00AC0D3F00BC0D4F0120009C01F
:101F4000DBF00AC0DCF00BC0DDF0120009C0E1F0EC
:101F50000AC0E2F00BC0E3F0120009C0E4F00AC0CE
:101F6000E5F00BC0E6F0120009C0DEF00AC0DFF0B9
:101F70000BC0E0F0120009C0D8F00AC0D9F00BC0C5
:101F8000DAF0120009C0D5F00AC0D6F00BC0D7F0C5
:0E1F90001200F29A120012001200120012004B
:020000040020DA
:10000000FF0FFF0FFF0FFF0FFF0FFF0FFF0FFF0F80
:020000040030CA
:0C000000ECFFFFFF9FFFFFFFFFFFFFFF73
:00000001FF
