:0400000080313A28E9
:100008007E1480310B1F09280A2838282100111E68
:100018000E280F281A282000111E132814281A2821
:1000280050088A004F080A00803138282100911EA4
:100038001E281F282A282000911E232824282A2821
:100048004E088A004D080A00803138282100111C0A
:100058002E282F2838282000111C33283428382827
:1000680082313D22803138287E10090080313C28B9
:100078007030840000308500083082315E22803183
:100088002030840000308500233082315E228031A8
:100098007E1020008231042A2000911E5428552801
:1000A800502823001908F8007808F2000630710279
:1000B80003185F2860286C287208F8007108383E19
:1000C80086008701780881000130F8007808F10778
:1000D800333020003806031D72287328B6284430B0
:1000E8003A06031D782879288C2845303B06031DDD
:1000F8007E287F288C28031022000C1C0314031868
:100108008628892822000C148B2822000C10B62877
:1001180045303A06031D91289228A52839303B0618
:10012800031D97289828A528031022008C1C031467
:1001380003189F28A22822008C14A42822008C10BF
:10014800B62843303A06031DAA28AB28B6284630FD
:100158003B06031DB028B128B6280330F8007808FC
:10016800BF00B628080021009112FC302000D20000
:100178000030D30082317022803121001112983072
:100188002000D2000130D30082316A228031083049
:1001980023009F0090309D0024309E00A0309B00DB
:1001A80001309C00B6302000D2000230D3008231EA
:1001B8007C228031AA302000D2000230D300823164
:1001C80076228031AE302000D2000230D300823156
:1001D800822280312000C201F701F6010830D400E4
:1001E8005408D100F501F401F3012100911608002B
:1001F8007508203E86008701810123001D1D052901
:10020800062911297508203E8600870181142000DF
:100218004C088A004B080A00813123009D1C1529CF
:10022800162921297508203E86008701011520001E
:100238004A088A0049080A0081317508203E86006C
:1002480087010108031929292A293129200048088A
:100258008A0047080A00813134298131D32180314D
:10026800080022008C018D018E01083021009000C9
:10027800FC308C00FF308D00BF308E003C302300F6
:100288008E003F308D003C308C00240090018D01A1
:100298008C018E012100951725008C018D018E019E
:1002A800FF3026008C00FF308D00FF308E00FF30BD
:1002B80027008C00FF308D00FF308E000830900042
:1002C80017303C00A40014303D00A6000800700858
:1002D80003196F29702973290130F00297290A3010
:1002E800F8007808F0002000BF010A303D06031D21
:1002F8007E297F299729F901FA017908383E860075
:10030800870181010130F9070030FA3D7A08803A07
:10031800F80080307802031D932906307902031C07
:1003280096299729812908000830200051020318CE
:100338009E299F29B7297608303E86008701010843
:1003480023009A000130F8007808F6070830760292
:10035800031CAF29B029B129F6010130F80078084B
:100368002000D107B92921001112080020009901A5
:10037800FF3097006530960011101708C600160860
:10038800C50021001114B5302000D2000230D3007E
:10039800823164228131D530200098000800230082
:1003A8001908F8007508283E86008701780881003A
:1003B8000130F8007808F50708307502031CE529B4
:1003C800E629E729F5010130F8007808F307080065
:1003D8003334333444344534333442344434453488
:1003E800333433344534393433344234453439348E
:1003F8003334333443344634333442344334463468
:1004080082312D2282318B170B1750302000D200F9
:100418000030D3008231702282316B302000D2004C
:100428000130D300823164228231192A80313A287E
:100438002000181D202A212A282A18107908970038
:100448007808960018142C2A7908970078089600DE
:10045800080081313521823182315722823182313F
:10046800A62282318131BA2182318031B72082318E
:100478000800200011104608F9004508F8008231EC
:100488001C22823182314A2282310800200043082E
:1004980044040319502A512A562A44088A0043085A
:1004A8000A00823108007830210099009801220062
:1004B80096010800640080010131890B5F2A00342D
:1004C80020005308C4005208C30008002000530845
:1004D800D0005208CF00080020005308CE00520870
:1004E800CD00080020005308CA005208C9000800BF
:1004F80020005308CC005208CB0008002000530805
:10050800C8005208C7000800333433344334463433
:1005180000343334423443344634003433343334CF
:1005280045343934003433344234453439340034B2
:10053800333433344434453400343334423444346B
:1005480045340034163021009700080023001D129E
:100558001D1608008131D32182310800333442341A
:0605680000340800080049
:020000040001F9
:08000000FF3FFF3FFF3FFF3F00
:04000E00E43FFF3E8E
:00000001FF
